:100000000C942A000C943F000C943F000C943F0089
:100010000C943F000C943F000C943F000C943F0064
:100020000C943F000C943F000C943F000C943F0054
:100030000C943F000C943F000C943F000C943F0044
:100040000C943F000C943F000C943F000C943F0034
:100050000C943F0011241FBECFE5D4E0DEBFCDBF1E
:1000600010E0A0E6B0E0E6E6F3E002C005900D92F5
:10007000A039B107D9F70E94EF000C94B1010C949C
:10008000000090989198929A83EF91E00197F1F790
:1000900000C00000929883EC99E00197F1F700C04E
:1000A000000081E090E0089585EA9EE00197F1F775
:1000B00000C0000088E388BB0E94410090E19A954F
:1000C000F1F700C081E088BB0E94410083EF91E01E
:1000D0000197F1F700C000008EE088BB0E9441004C
:1000E00090E19A95F1F700C080E888BB0E9441003A
:1000F00080E18A95F1F700C08CE188BB0E94410045
:1001000090E19A95F1F700C081E090E00895909A0F
:100110009198929A83EF91E00197F1F700C0000067
:10012000929887EA91E60197F1F700C0000081E01C
:1001300090E00895EF92FF920F931F93CF93DF9378
:100140008C017C01C0E0D0E007C0F70181917F0104
:1001500088BB0E9487002196F80101900020E9F7F2
:100160003197E01BF10BCE17DF0778F381E090E0C9
:10017000DF91CF911F910F91FF90EF9008958FB570
:10018000816A8FBD8EB589608EBD89B7846089BF55
:1001900085B5896685BD80E090E0089582EB83BDDA
:1001A00080ED90E09BBD8ABD80EC90E099BD88BD5C
:1001B00080E090E008953E9A86B1846886B980E038
:1001C00090E0089527B197B1907F922B8770982B7C
:1001D00097B9369A3699FECF84B195B10895EF92CA
:1001E000FF920F931F93CF93DF93CDB7DEB7A897FE
:1001F0000FB6F894DEBF0FBECDBF8FEF87BB81BBBC
:100200000E9454000E94BF000E94DB000E94CE00AA
:1002100080E00E94E200E82E2FE38DE093E0215081
:1002200080409040E1F700C0000081E00E94E200C1
:10023000F82E82E00E94E200082F83E00E94E20094
:10024000182F4AE0BE016F5F7F4F8E2D90E00E9415
:100250007C014AE0BE01655F7F4F8F2D90E00E94D8
:100260007C014AE0BE016B5E7F4F802F90E00E94D0
:100270007C014AE0BE01615E7F4F812F90E00E94C9
:100280007C0180E690E00E949A00CE0101960E94D7
:100290009A0085E690E00E949A0083E790E00E9431
:1002A0009A00CE010B960E949A0086E790E00E9489
:1002B0009A00CE0145960E949A008BE790E00E943A
:1002C0009A00CE014F960E949A0080EC88BB0E9453
:1002D000410080E890E00E949A0081E090E0A896BA
:1002E0000FB6F894DEBF0FBECDBFDF91CF911F9147
:1002F0000F91FF90EF900895BB274A3031F4992376
:1003000022F4BDE2909581959F4F0C948801BB2704
:10031000FB015527AA27880F991FAA1FA41710F0C1
:10032000A41B83955051B9F7A05DAA3308F0A95DCD
:10033000A193009779F7B111B1931192CB010C946D
:10034000A101DC01FC01672F71917723E1F732975E
:1003500004C07C916D9370836291AE17BF07C8F3A0
:060360000895F894FFCFA0
:100366005247423D0020202020202020202020200F
:10037600202000523D002C20473D002C20423D000D
:10038600436F6D706F736974696F6E2069733A009D
:00000001FF
